:020000040804EE
:100000000000082455ED0608A1ED060819BE0508F4
:100010001FBE050825BE05082BBE05080000000010
:10002000000000000000000000000000F1DA0508F8
:10003000A1ED06080000000089DB050899DB050832
:10004000A1ED0608A1ED0608A1ED0608A1ED060840
:10005000A1ED0608A1ED0608A1ED0608A1ED060830
:10006000A1ED0608A1ED0608A1ED0608A1ED060820
:10007000A1ED0608A1ED0608A1ED0608A1ED060810
:10008000A1ED0608A1ED0608A1ED060839F806085D
:1000900049F8060845F8060855F80608A1ED0608CF
:1000A000A1ED0608A1ED0608A1ED0608A1ED0608E0
:1000B000A1ED0608A1ED0608A1ED0608A1ED0608D0
:1000C000A1ED0608A1ED0608A1ED0608A1ED0608C0
:1000D000A1ED0608A1ED0608A1ED0608A1ED0608B0
:1000E000A1ED0608A1ED060800000000A1ED06083C
:1000F000A1ED0608A1ED0608A1ED0608A1ED060890
:10010000A1ED06087D7C0608A1ED0608A1ED060814
:10011000A1ED0608A1ED0608A1ED0608A1ED06086F
:10012000A1ED0608A1ED0608A1ED0608A1ED06085F
:10013000A1ED0608D5520508A1ED0608A1ED0608B7
:10014000A1ED0608A1ED0608000000000000000077
:10015000A1ED0608A1ED0608A1ED0608A1ED06082F
:10016000A1ED0608A1ED0608A1ED0608A1ED06081F
:10017000A1ED0608A1ED0608A1ED060800000000AB
:10018000A1ED0608A1ED0608A1ED0608A1ED0608FF
:10019000A1ED0608A1ED0608A1ED0608A1ED0608EF
:1001A000A1ED0608A1ED0608A1ED0608A1ED0608DF
:1001B000A1ED0608A1ED0608A1ED0608A1ED0608CF
:1001C000A1ED0608A1ED0608A1ED0608A1ED0608BF
:1001D000A1ED0608A1ED0608A1ED0608A1ED0608AF
:1001E000A1ED0608A1ED0608A1ED0608A1ED06089F
:1001F000A1ED0608A1ED0608A1ED0608A1ED06088F
:10020000A1ED0608A1ED0608A1ED0608A1ED06087E
:10021000A1ED0608A1ED0608A1ED0608A1ED06086E
:10022000A1ED0608A1ED0608A1ED0608A1ED06085E
:10023000A1ED060851ED0608A1ED0608A1ED06089E
:10024000A1ED0608A1ED0608A1ED0608A1ED06083E
:10025000A1ED0608A1ED0608A1ED0608A1ED06082E
:10026000A1ED0608A1ED0608A1ED0608A1ED06081E
:10027000A1ED0608A1ED0608A1ED0608A1ED06080E
:10028000A1ED0608A1ED0608A1ED0608000000009A
:10029000A1ED0608A1ED060810B5054C237833B989
:1002A000044B13B10448AFF300800123237010BD49
:1002B0005012002400000000086B080808B5034B2A
:1002C0001BB103490348AFF3008008BD00000000E4
:1002D00054120024086B0808154B002B08BF134B61
:1002E0009D46A3F5803A00218B460F461348144AD9
:1002F000121A35F0CDFD0F4B002B00D098470E4B56
:10030000002B00D098470020002104000D000D486C
:10031000002802D00C481CF089FC34F07DFF20003E
:1003200029001DF027FA1CF0A3FE00BF0000080002
:100330000000082400000000D1D605085012002457
:10034000801101242DCC05080000000070B5044682
:100350000D4602F003FA30B1236829462046DB6BD4
:10036000BDE87040184770BDA0F59760EEE700004B
:10037000074B10B50446036000F0A4FCD4F82C3100
:100380001BB19B6804F590709847204610BD00BFD4
:10039000A4DA0708F0B5934CD3B0934800F060FAA4
:1003A000236898420AD0904800F05AFA0828206042
:1003B0000CBF8E498E498F4802F05EFA00228E49AA
:1003C00006A800F02BFE0A9B002B00F0F3808B495F
:1003D000884802F051FA8A49684602F0D3FA894DFA
:1003E000874E894F06A800F077FC002800F0D880DF
:1003F00006A800F023FD0028F4D006A800F080FC39
:10040000C4B228462146FFF7A1FF0A2C52D1029B15
:10041000002B46D17D4906A802F02EFA7C4906A899
:1004200002F02AFA06A802F021FA7A4906A802F098
:1004300010FA794906A802F00CFA784906A802F0E9
:1004400008FA774906A802F004FA764906A802F0ED
:1004500000FA754906A802F0FCF9744906A802F0F2
:10046000F8F9734906A802F0F4F9724906A802F0F7
:10047000F0F9714906A802F0ECF9704906A802F0FB
:10048000E8F96F4906A802F0E4F96E4906A802F0FF
:10049000E0F96D4906A802F0DCF906A802F0E6F9D9
:1004A0007EE03146684602F0A5FA394603A802F01C
:1004B00069FA06E00D2CF8D02146684602F0BBFA36
:1004C000F3E703A9684602F0E1FA044603A802F044
:1004D00013FA24B95D4903A802F054FA04E000219C
:1004E000162002F0C9FBF5E703A9684602F0CEFA30
:1004F000044603A802F000FA24B9554903A802F003
:1005000041FA04E00121162002F0B6FBF5E703A949
:10051000684602F0BBFA044603A802F0EDF924B9DC
:100520004C4903A802F02EFA04E00021172002F043
:10053000A3FBF5E703A9684602F0A8FA044603A85E
:1005400002F0DAF924B9444903A802F01BFA04E0E6
:100550000121172002F090FBF5E703A9684602F09D
:1005600095FA044603A802F0C7F924B93B4903A849
:1005700002F008FA04E00021182002F07DFBF5E704
:1005800003A9684602F082FA044603A802F0B4F90F
:10059000002C3FF427AF0121182002F06DFB21E76A
:1005A00006A800F08FFB2E49124802F065F9684654
:1005B00002F0A2F906A8FFF7DBFE53B0F0BD03A8D6
:1005C00002F09AF9684602F097F906A8FFF7D0FE04
:1005D00032F0F0F9F3E7F2E7F1E7F0E7EFE7F1E700
:1005E000F3E700BF7C120024801200246ED60708B7
:1005F00085D607088C2300246C120024A1D6070896
:10060000B1080808D41E002438D90708ACD607085A
:10061000BCD60708D3D60708E0D60708E8D60708EF
:1006200006D7070840D70708F9D7070809D80708E9
:1006300027D8070850D807087BD80708A8D8070884
:10064000D3D80708FED8070829D9070840D90708D2
:1006500048D9070850D9070858D9070860D90708AA
:1006600068D9070837B5114C114D1249204602F0E0
:10067000F0F8284600F0CCF80146204602F0FCF8DD
:100680002946684600F0A7F90B49204602F0E1F838
:100690006946204602F0FAF80849204602F0D9F8E7
:1006A0006946204602F0F2F803B030BD8C230024E6
:1006B0008012002424D607082BD6070838D607084E
:1006C0005021014800F0A2BC6C12002410B5254C4A
:1006D0004FF41651234801F0B7FE204602F03EF8D1
:1006E0000028FAD02049214802F0C6F8012116203E
:1006F00002F054FA0121172002F050FA01211820CB
:1007000002F04CFA1A4836F0BBF9072808D8194904
:10071000164802F0B1F81849144802F0ADF8FEE7A7
:100720001649124802F095F81549104802F0A4F84D
:1007300006230F4A1249134800F01AF9124B0728F2
:10074000186004D00B49094802F096F8FEE742F21F
:10075000107002F0F9F90D4800F030FCBDE81040CF
:10076000FFF780BFD41E00247CD907088C23002407
:100770009C03002494D90708B1D90708E6D90708D3
:10078000C1030024801200247C1200246C12002477
:100790007047000038B50446054B054644F8BC3B9D
:1007A00003F07CFC20461CF02BFF284638BD00BF20
:1007B000A4DF070837B595790446D3795179127AC1
:1007C00000922A4602F01CF8204603B030BD70B5F6
:1007D00086B0144605460D22002102A81E4635F0BB
:1007E00057FB012301A9324628468DF804302379AE
:1007F0008DF8053063798DF80630A3798DF80730D0
:10080000E3798DF8083011F0F7FE284606B070BD88
:10081000C06F7047F8B50546C06F0E4608B134F09A
:10082000F5FE212034F0EAFE0446E867B8B133460D
:10083000024606F120071868083353F8041C1546D1
:10084000BB4203C52A46F6D11B7830462B7036F0E2
:1008500017F9202802D9002384F820300120F8BDA0
:1008600090F880007047036823B11A6852F8800C32
:1008700018447047D0F884000028FAD0036853F871
:10088000803CF5E710B50446FFF784FF4FF4F8719C
:1008900020461CF05DFC204610BD10B50446282102
:1008A0001CF056FC204610BD10B50446006808B187
:1008B0001CF05AFC204610BDF0B5002287B0051D83
:1008C00004461146684611F0E8FE6946284611F0D4
:1008D00051FF06466846FFF7E7FF5EB12249002256
:1008E000684611F0DAFE6946284611F039FF68467D
:1008F000FFF7DAFF002204F11C066846114611F0EA
:10090000CCFE6946304611F035FF07466846FFF7D2
:10091000CBFF1FB12946304611F022FF00223434AC
:100920006846114611F0B9FE6946204611F022FFD3
:1009300005466846FFF7B8FF5DB10C4900226846DE
:1009400011F0ABFE6946204611F00AFF6846FFF73A
:10095000ABFF07B0F0BD6846FFF7A6FF32F02AF8FC
:10096000F9E7F8E7F7E7F6E704DA070810DA070827
:100970002DE9FF4104460D4616461F4613F058FF69
:10098000206030B32046FFF797FF2346211D53F820
:100990001C0B0268D2F83C8004F13402C0470123EA
:1009A000002229462068CDE90223CDE900733246B2
:1009B000032313F059FB20B929462046FFF72AFFED
:1009C00028B9092084F8800004B0BDE8F081072030
:1009D000F8E70920F8E730B58DB00D461822002160
:1009E0000446684635F054FA2846FFF73CFF036892
:1009F00069469B6A9847694606A811F014FE06AA44
:100A000029462046FFF7D6FE08E006A8FFF74CFF70
:100A10006846FFF749FF31F0CDFFF9E706A8FFF779
:100A200043FF6846FFF740FF20460DB030BD10B5CC
:100A300004466430FFF738FF04F14C00FFF734FF41
:100A400004F13400FFF730FF04F11C00FFF72CFF26
:100A5000201DFFF729FF204610BD2DE9F84304466D
:100A600000260546894604F11C07324645F8046B0A
:100A70003146284611F011FE32463146384611F013
:100A80000CFE04F1340600223046114611F005FE3A
:100A900004F14C0800224046114611F0FEFD0022F0
:100AA00004F16400114611F0F8FD10E04046FFF734
:100AB000FBFE3046FFF7F8FE3846FFF7F5FE284606
:100AC000FFF7F2FE31F076FFF3E7F5E7F7E70023F3
:100AD000C4F884902046E36784F88030C4F88C30F2
:100AE000BDE8F883F0B51E4B87B0012766221D4D87
:100AF0003B211D4C1D4E2846CDE903735A23CDE9F9
:100B000001323D233C220093572303F03DFA224655
:100B1000174928461CF088F83A4629463046154DB4
:100B200016F04CFD2246144930461CF07DF8002298
:100B3000124928461AF010F82846114D224611494C
:100B40001CF072F811F0A3FB01462846FFF785FF61
:100B500022460D49284607B0BDE8F0401CF064B8B5
:100B6000005A620218130024980300240815002478
:100B70009507040830150024910704083ADA07089D
:100B80008012002449A905082F0A040870B54FF403
:100B900080128EB0002301213348CDE902230022C8
:100BA0000023CDE900230B2216F0BCFC2F4930486E
:100BB00019F015FC50B12F492F4801F05DFE2F4967
:100BC0002D4801F059FE2BF06DFAFEE72C481BF082
:100BD000C1FF04460028F2D02A4E20461BF0DEFF5B
:100BE000054610B331460BA801F0CCFE294608A8F3
:100BF00001F0C8FE08A90BA801F02AFF014605A8CC
:100C000001F0EEFE08A801F077FE0BA801F074FEDB
:100C10001D4905A801F028FF18B120461BF0D2FF9E
:100C200018E005A801F068FED7E71849124801F05E
:100C300023FE20461BF0C6FFC1E708A801F05CFEBA
:100C40000BA801F059FE31F0B5FEF9E705A801F057
:100C500053FEF8E701240E4B05A81C7001F04CFE72
:100C600020460EB070BD00BF1813002408150024E4
:100C7000301500241EDA07088C23002467DA0708E1
:100C800039DA07083FDA070846DA070858DA0708AA
:100C900014130024002070470069003018BF0120A1
:100CA000704713B502AB006903F8011D19460268CD
:100CB00014690122A04702B010BD006903681B69D6
:100CC0001847704710B50446006920B103689B6857
:100CD00098470023236110BD90F81C01053818BF08
:100CE00001207047D0F81821D0F814319A4204D06E
:100CF000D0F818311844007D70474FF0FF3070472E
:100D000010B5036804461B69984780B1D4F81821D0
:100D1000D4F814319A420AD0D4F818312344187DFB
:100D2000D4F818310133DBB2C4F8183110BD4FF0DC
:100D3000FF30FBE770B5036805460E4614461B6995
:100D40009847F8B184423146A8BF04463019814221
:100D500016D0D5F81821D5F814319A420DD0D5F80F
:100D600018312B441A7DD5F818310133DBB2C5F8A0
:100D70001831134601F8013BE9E74FF0FF33F9E77B
:100D8000204670BD4FF0FF30FBE7000038B500256E
:100D90004FF47A7304464FF480722946C0E9015338
:100DA000064B40F8143B35F073F8C4F81451C4F8FE
:100DB0002C512046C4F8185138BD00BFA4DA0708EA
:100DC00030B504460069C1B0D4F81411D4F8182124
:100DD000036891425B691DDBD4F81421D4F8181123
:100DE000C2F1FF020A44694698470022824218DA9B
:100DF000D4F81431D4F818110133DBB28B4207D088
:100E0000D4F814111DF8025021440D75C4F81431A2
:100E10000132EBE7D4F81821D4F81411521A013A30
:100E2000E1E7002805DA044B98421CBF052384F84B
:100E30001C3141B030BD00BF47F4FFFF10B5D0F802
:100E400014310446D0F818219B1A48BF03F580736B
:100E50000BB9FFF7B5FFD4F81401D4F81831C01A54
:100E600048BF00F5807010BD70B5036904460E469A
:100E700073B120694FF47A7103689B6A98472069BF
:100E800031460368DB689847B0FA80F0400970BDCE
:100E900090201CF029F9054611F016FE25610A483C
:100EA000FFF7E1FC03681B6F98470146284611F0E5
:100EB00041F80028DDD00020E9E7902128461CF009
:100EC00047F931F077FD00BF8012002410B50E4BBA
:100ED00088B00446009302A84B680C49019313465E
:100EE0006A46FFF774FC02A92046FFF7BDFF04E045
:100EF00002A8FFF7D9FC31F05DFD044602A8FFF718
:100F0000D3FC204608B010BD84DE07088012002400
:100F1000F0B500248FB0174605460E461122214633
:100F200003A8ADF81C40029434F0B2FF1348ADF8AA
:100F30001E70FFF798FC036802AA009431461C68F3
:100F40000023A04702A908A811F06DFB08A92846B4
:100F5000FFF78AFF08E008A8FFF7A6FC02A8FFF742
:100F6000A3FC31F027FDF9E7044608A8FFF79CFC35
:100F700002A8FFF799FC20460FB0F0BD80120024B4
:100F800070470B6803604B6843608B6883607047F1
:100F9000C3680BB19B6818477047704713B5C068AA
:100FA00002AB03F8011D1946026814690122A0472B
:100FB00002B010BDC06803681B691847C36870B5EC
:100FC000044683B990201CF08FF8054611F07CFD93
:100FD000E5600D48FFF747FC03681B6F9847014623
:100FE000284610F0A7FF2189E06810F0EFFFE068C5
:100FF00005210368BDE87040DB6B18479021284647
:101000001CF0A6F831F0D6FC8012002400220181E9
:101010004260014A02607047E0DA070873B50E4685
:1010200004461546FFF7B2FEF06801A903689B6B02
:10103000984725B1019BB3FA83F35B092B702061BC
:10104000204602B070BD074B20462360FFF73AFEF2
:10105000D4F82C311BB19B6804F59070984731F09F
:10106000A9FC00BFA4DA070830B5A1F110040025DF
:1010700000F00F02CD7302390009D3B2092ACCBFA8
:10108000373330330B748C42F2D130BD074B10B57F
:1010900004460360806A08B11AF060FB236913B14B
:1010A0009B68201D9847204610BD00BFA0E00708A0
:1010B00010B50446FFF7EAFFD02120461CF048F89F
:1010C000204610BD1920704700B5B9B0162217216F
:1010D00004A803F0F9FC4FF4A17338AA102122F8F8
:1010E000D43D00230DEB01000093022303F042FCEA
:1010F00004A8FFF7CBFF39B05DF804FB04A8FFF7A5
:10110000C5FF31F057FC000008B5094A0121094B21
:10111000A6201A6001F088FD0121A62001F0F6FD4D
:10112000FFF7D2FF044B43F2D2021A6008BD00BFA2
:10113000004000588C1500240040005210B50446B1
:101140001FF0B4F82146FFF78FFF1FF0B5F804F148
:101150001001FFF789FF1FF0B5F804F12001FFF738
:1011600083FF302010BD000008B54DF659720021F4
:10117000074824F01CF9BFF34F8F0649064BCA6895
:1011800002F4E0621343CB60BFF34F8F00BFFDE773
:101190008C15002400ED00E00400FA05D0E90030D1
:1011A0001847000010B5C0E90012024C0022C460CC
:1011B000826010BDF4DA070810B50446806920B1DA
:1011C0000368DB6898470023A36110BD70470120C6
:1011D0007047D0F82431D0F82801181A48BF00F51C
:1011E00080707047D0F82821D0F824319A4205D079
:1011F000D0F82831184490F8240070474FF0FF30A1
:101200007047D0F82821D0F824319A420CD0D0F879
:101210002831034493F82420D0F828310133DBB27D
:10122000C0F82831104670474FF0FF30704770B556
:10123000036814460546DB69984704F4706304F0BC
:101240000F02B3F5407F04F0F0030CBF0721082123
:10125000302B0CBF02230123012A07D0901E4242EB
:101260004241A869BDE8704004F0A6B90222F8E73F
:1012700013B50446A06904F0B6F9C0B1A069012213
:101280000DF1070103685B699847D4F82431D4F85D
:1012900028210133DBB29342ECD0D4F824219DF80D
:1012A0000710224482F82410C4F82431E2E702B087
:1012B00010BD13B504468DF80710A06904F0A4F919
:1012C0000028FAD0A06901220DF1070103681B690B
:1012D0009847013018BF012002B010BD70B5044618
:1012E0000E461546A06904F08FF90028FAD0A069CF
:1012F0000121C36F7C301B6B9847A0692A46314699
:1013000003681B699847431C14BF2846002070BD22
:1013100010B4D0E9013401686210E4075DF8044BB1
:1013200001EB020044BF8A58D35818477FB5836940
:1013300004460E465BB980201BF0D6FE3346B4F956
:101340001E200546B4F91C1004F0DAFBA561B4F9BF
:101350002020531C05D0B4F922300321A06904F0E9
:10136000DDFBA06960B10C4B002269460094039339
:101370000A4B0292019304F072F96846FFF708FEE7
:1013800004B070BD802128461BF0E2FE31F012FB54
:101390006846FFF7FDFDF9E700DB07087112040856
:1013A00008B54FF48072002134F072FD0022C0F8BD
:1013B0000021C0F8042108BD2DE9F041FFF782FEAD
:1013C0000E284FF000044FF47A788CBF214B4FF079
:1013D000FF35214F4FF0200688BFB3F9E050FFF7EB
:1013E00071FE0D281D488ABF1A4B4FF0FF33B3F929
:1013F000D03085834FF6FF750760C383058445842D
:10140000C0E90148C0E905642430FFF7C9FF14486A
:101410000F23076083835623C383582303845923F0
:10142000C0E90148C0E9056443842430FFF7B8FFF0
:101430000C4898230760838399230584C3834584DC
:10144000C0E90148C0E905642430FFF7A9FFBDE801
:10145000F08100BFD803002414DB0708B015002476
:10146000E0160024101800240020704770477047D1
:1014700010B5D0F88C452CB1236820465B6898479E
:10148000A468F8E710BD38B50D46D0F88C4534B1E6
:101490002368204629469B689847A468F7E738BD2B
:1014A00000487047D4DB0708054B10B504460360BD
:1014B00005F052FE204605F069FE204610BD00BF33
:1014C00054DB070810B50446FFF7EEFF4FF4B26196
:1014D00020461BF03DFE204610BDF7B50023054613
:1014E0000E46D0F88C45A4B1236831460DF10302B5
:1014F0002046DF6801ABB8479DF803100346042976
:1015000005D0019A284605F077F803B0F0BDA4682D
:10151000E9E7019A9DF80310F4E770B505460E4619
:1015200022B10021BDE8704004F06ABED0F88C45BD
:101530005CB123680022314620461B69984710B1F0
:1015400001212846EEE7A468F2E72146F9E770B5E5
:101550000E460546D0F88C4500213CB12368314643
:1015600020465B699847A4680146F6E72846BDE82F
:10157000704004F035BFF8B505460E461746D0F862
:101580008C453CB1236820463A4631469B699847D2
:10159000A468F6E728460121BDE8F84004F07EBFC4
:1015A00070B5002186B0044605F030FA00234FF4F0
:1015B0008975A188EF26ADF806302389ADF804506F
:1015C00002258DF810301B0AE2888DF8113040F2A8
:1015D00001238DF80750ADF8123040F203138DF857
:1015E00009500125ADF8143004F10A038DF80860A4
:1015F00005AE8DF80A501C468DF80C1001AD090A95
:101600008DF80E20120A8DF80B008DF80D108DF854
:101610000F202A46083303CAB24243F8080C43F8A5
:10162000041C1546F5D1128820461A8006B070BDFC
:10163000F8B5002406460D462746304635F020FA18
:10164000A04207D9335D05F8143005EB440301349B
:101650005F70F2E7400000F0FE00F8BD38B50446C8
:10166000D0F88C5535B12B6828461B6A984710B9BD
:10167000AD68F7E7284640F2023304F24A51A4F875
:101680004835FFF7D5FF94F84835184484F84805E5
:1016900004F5A96038BD000040F2023300F20A519F
:1016A00010B50446A0F808350548FFF7C1FF94F8C7
:1016B0000835184484F8080504F5A16010BD00BF82
:1016C00040DB070840F2023310B50446A0F8C834E6
:1016D00000F2CA40FFF732FD94F8C834184484F889
:1016E000C80404F5996010BD2DE9FF4100231D4A8F
:1016F000044600F54E788DF80A30092590F88835B3
:101700000192FA228DF8083001238DF80C208DF813
:101710000930C0238DF80B3001AB03CBC4F838037C
:10172000C8F8041088F80820D4F88C658EB13368A6
:10173000002130461B689847478805F54E7300F135
:101740000901093FE0183A463D4434F0A3FAB6686F
:10175000ECE784F83A5340462D1284F83B5304B02A
:10176000BDE8F0810902FFFF73B504460D46164639
:101770002DF0D2FF4FF4807301462A462046009395
:10178000334605F0FFF8024B2046236002B070BDDF
:1017900054DB0708D0F88C356BB9C0F88C1590F87D
:1017A00088354A790B7190F88835134480F888356C
:1017B0000120704713469A68002AFBD19960EEE732
:1017C0001FB5044605F0D8F80146684604F062FAF1
:1017D0004021684604F0D1FAD4F88C4534B123682E
:1017E00069462046DB699847A468F7E7684604F035
:1017F00058FA04B010BD684604F053FA31F0DAF834
:1018000010B50446FFF7DCFF2046BDE8104005F0A8
:1018100022B800000F4808B50378BFF35B8FDB07E1
:1018200011D41BF019FA70B140F25B2242F241313F
:101830000948FFF799FF07481BF030FA074A0849A3
:1018400005481BF0F1F9044808BD02481BF034FCC0
:1018500031F0B0F840190024441900249803002402
:10186000A914040810B5FFF7D5FF0368BDE81040C0
:101870005B6F184710B5FFF7CDFF0368BDE8104058
:101880009B6F184710B5FFF7C5FF0368BDE8104010
:10189000DB6F184704F092BB04F0A6BB04F07EBBDC
:1018A000704770477047436A93F870007047D0F8EC
:1018B0009C0470470048704734DD07082DE9F04765
:1018C00094B004460F464B22002101A834F0E0FA00
:1018D0002679D4F89C34751C94F80E90002B94F85B
:1018E0000C80EDB294F80DE014BF05200020002F0D
:1018F00040F0938040F2092309218DF81D0042F247
:101900000540ADF804304FF481738DF815100121B6
:10191000ADF808308023ADF81E0010208DF80B3094
:1019200032234FF0040A24278DF80C3008234FF09F
:10193000030C4B228DF80D300B238DF819101D343C
:101940008DF80E3040F202238DF81C10ADF81030E7
:1019500002238DF8210005208DF822108DF8251026
:101960008DF8271006218DF806208DF80F608DF870
:1019700012308DF817608DF81A308DF81B308DF805
:1019800023008DF826C08DF82A308DF82B108DF8A5
:101990002C008DF816A08DF824708DF828A08DF8F5
:1019A00029708DF82D708DF82E1007218DF82F607D
:1019B00041F202068DF831108DF8411040F20751C6
:1019C0008DF83050ADF8366040F209468DF83A5047
:1019D00040F602258DF832008DF842002046ADF821
:1019E00048100DEB0A018DF833908DF834C0ADF836
:1019F0003860ADF83C508DF843808DF844308DF858
:101A000046308DF84AE08DF84B308DF84D3034F08B
:101A100041F9204614B0BDE8F0870020FAE7000045
:101A20000A4B10B504460360FFF7F4FE05F094FB83
:101A300004F5227004F03CFA04F1740004F038FA62
:101A400004F1680004F034FA204610BDF8DC070801
:101A500010B50446FFF7E4FF4FF4946120461BF0F5
:101A600077FB204610BDFFF70DBF0000034B10B5FC
:101A70000446036004F096F8204610BD1CDC0708FD
:101A800010B50446FFF7F2FF282120461BF060FB4B
:101A9000204610BD034B10B50446036004F082F8E5
:101AA000204610BDECDB070810B50446FFF7F2FF37
:101AB000342120461BF04CFB204610BD034B10B5D3
:101AC0000446036004F06EF8204610BD04DC0708ED
:101AD00010B50446FFF7F2FF382120461BF038FB13
:101AE000204610BD38B51E4B0D4604464FF400721B
:101AF0001968C0F80F1099889B79A0F8131002217B
:101B00004375284604F02FF94FF400722073022128
:101B1000284604F02DF94FF4007260730321284623
:101B200004F021F9A073284604F0BCF820B9B622CD
:101B30000C490D481AF042FB04F17D020023C4F861
:101B4000802204F2912284F8703084F87C30C4F84A
:101B5000843284F89032C4F89424C4F8983438BDA0
:101B600038DC070874DC0708DFDC07082DE9F341DF
:101B700004460E461546FFF785FEF28823799A4201
:101B800037D1002D35D17778012F2ED1F378202B46
:101B900027D13289072A24D104F10F0804F1160550
:101BA0004046294634F044F8D0B1D4F81630C4F891
:101BB0000F30638B207CE17BA4F8133001EB002114
:101BC000E57C607C237F01EB00410095A07C2568CB
:101BD000637501EB0061237D2046627D2D6BA84774
:101BE0003D46F378212B08BF0125284602B0BDE809
:101BF000F0810025F9E710B50446FFF743FEFFF733
:101C000009FE217B05F048F904F17D0304F174001D
:101C1000C4F880320023C4F8843284F87C3004F0A5
:101C2000F9F894F87C302BB9236820469B6BBDE80B
:101C30001040184710BD000070B50446FFF722FEA3
:101C4000D4F898542DB14FF4F1720F490F481AF09F
:101C5000B5FA04F29123C4F89434FFF7DBFD617BFD
:101C600005F078F884F89052C4F8980404F52270CE
:101C700004F0D0F894F890322BB9236820465B6BBF
:101C8000BDE87040184770BD74DC070844DC0708E5
:101C900010B4D0E9013401686210E4075DF8044B28
:101CA00001EB020044BF8A58D358184770B586B07C
:101CB0000546FFF7E7FD02ACFFF7ACFD0023A97B6B
:101CC00000944FF400720593032304F0DDFD2046D9
:101CD000214EFFF75DF9FFF79DFD204A297B022386
:101CE00003920022009404924FF40072059602952C
:101CF00004F0CAFD2046FFF74BF9FFF78BFD184BA8
:101D0000697B4FF400720393002300940493022331
:101D10000596029504F0B8FD0CE02046FFF738F96F
:101D200030F048FE2046FFF733F9F9E72046FFF789
:101D30002FF9F5E72046FFF72BF9FFF76BFD4FF47E
:101D40000073D5F89424697B04F0A6FF012085F880
:101D5000900206B070BD00BF2CDC0708F71B04081A
:101D6000391C040802232DE9F04143710023044685
:101D7000054683609046144B04F1740645F8683BB1
:101D8000284604F03AF8304604F037F804F5227794
:101D9000384604F032F8C4F89C84FFF73BFD214636
:101DA000FFF7F8FC0CE0384604F082F8304604F007
:101DB0007FF8284604F07CF830F0FCFDF6E7F8E701
:101DC0002046BDE8F08100BFF8DC070870B5044686
:101DD0000D46FFF757FD84F87050002D3ED194F862
:101DE0007C3033B1FFF716FD217B04F02BFE84F825
:101DF0007C5004F17D0304F1740600253046C4F8DC
:101E00008032C4F8845204F005F8304603F0FBFF3A
:101E100028B940F24912144914481AF0CFF994F83D
:101E2000903233B1FFF7F6FC217B04F00BFE84F80F
:101E3000905204F2912304F52275C4F894340023DF
:101E40002846C4F8983403F0E5FF284603F0DBFF8A
:101E500020B940F2531204490548DEE704F1680056
:101E6000BDE8704003F0D6BF74DC070852DC0708F9
:101E700063DC070810B50446FFF704FD0021204687
:101E8000BDE81040FFF7A2BF38B50D460446FFF786
:101E9000F9FC042D05D020460021BDE83840FFF7AD
:101EA00095BF38BDF8B5154604460E461F46FFF7E8
:101EB000E9FC0423F2882B7023799A421DD17178B2
:101EC00001291AD1F278212A08D0222A0BD0202AFF
:101ED0004FF0000013D12870163401E00F34297040
:101EE00007203C60F8BDB388204613F0010308BF0B
:101EF0001946FFF76BFF02232B700020F2E7032344
:101F00002B70EFE710B58AB00446FFF7ABFC6846CC
:101F100003F03AFE0D4B694604F168000093099402
:101F200003F091FF2046FFF7A5FC094B002168460E
:101F30001A6803F075FE6846FFF798FD0AB010BDF9
:101F40006846FFF793FD30F035FD00BF1CDC070845
:101F500040DC070870B58EB004460E461546FFF704
:101F600081FC01A803F010FE114B01A904F17400DB
:101F7000019300230C958DF83430CDE90A4603F027
:101F800062FF2046FFF776FC0A4B002101A81A6881
:101F900003F046FE04E001A8FFF77CFD30F00AFDE7
:101FA0009DF8344001A8FFF775FD20460EB070BDC6
:101FB000ECDB070840DC070810B50446FFF762FCBD
:101FC00094F87C307BB9D4F8843263B1FFF722FCFB
:101FD000D4F8843204F17D02217B04F0FBFE10B1C1
:101FE000012384F87C3010BD2DE9F8431E460446D9
:101FF000894690469DF82070FFF734FC002333603B
:1020000094F87030E3B194F87C30CBB9D4F88452B2
:10201000C5F50075454528BF4546B8F1000F05D008
:102020002A464946D4F8800233F034FED4F884328C
:102030002B44C4F88432356017B12046FFF7BCFF4B
:102040002046BDE8F843FFF715BCF0B50446406AEA
:1020500085B0012690F870502DB984F8305035467F
:10206000284605B0F0BD04AB0027D4E90A1243F8B6
:10207000047D0096FFF7B8FF0399E36AA26A5B1A32
:102080000A44E362A26213B984F83060E8E7606A48
:102090003D46FFF791FFE3E72DE9F0431C4691B081
:1020A000054689469046FFF7DDFB002C4FF0000601
:1020B00002A806BF01AC01270027266003F064FDDB
:1020C000134B02A905F5227002938DF83C708DF830
:1020D0003D60CDE90B59CDE90D8403F0B4FE2846EF
:1020E000FFF7C8FB0B4B314602A81A6803F098FDB6
:1020F00004E002A8FFF7E2FC30F05CFC9DF83D40F4
:1021000002A8FFF7DBFC204611B0BDE8F08300BF5A
:1021100004DC070840DC070810B5D0F89834044602
:1021200073B990F890325BB9FFF774FB4FF400730A
:1021300004F29122617B04F0AFFD012384F8903218
:1021400010BD70B504461E4600230846336094F85F
:102150007030EBB194F89032D3B9D4F89854D4F8E5
:102160009414954228BF15462A4633F093FD3560F6
:10217000D4F89434D4F898242B44551BC4F89434E0
:10218000C4F8985425B92046BDE87040FFF7C4BF95
:1021900070BD37B50446406A90F870502DB984F888
:1021A00035500125284603B030BD02AB002243F86C
:1021B000042DD4E90A12FFF7C4FF0199A26A0A4468
:1021C000A262226B13680B4413600199E36A5B1AE5
:1021D00094F83410E36209B9126802B91BB90123FB
:1021E00084F83530DEE7606A0025FFF795FFD9E710
:1021F0006FF01500704700290CBF6FF01800002029
:102200007047012070476FF0150070476FF01500A0
:1022100070471120704770477047704703685B6CC8
:102220001847A0F59760F9E7704770477047704707
:1022300090F870007047A0F5976090F870007047B4
:10224000704703681847000038B500F06BFC094D73
:10225000044695F870301BB1012000F075FCF8E7DA
:1022600000F060FC001BC728F6D9BDE83840FEF737
:102270007BBF00BFD41E00244FF0FF3105F055B8DE
:1022800007B502AB012243F8041D1946FFF762FEB1
:1022900018B1019803B05DF804FB4FF0FF30F9E787
:1022A000A0F59460FFF7ECBF08B590F8703013B15B
:1022B000FFF750FE08BD1846FCE7A0F59760F3E76E
:1022C00007B5002302A9012201F8013DFFF7E4FE52
:1022D00020B19DF8070003B05DF804FB4FF0FF301C
:1022E000F9E7A0F59460FFF7EBBF2DE9F041044654
:1022F0000D4616461F46DDF81880FFF7C3FAD4F8DE
:102300008C463CB143463A4631462846A446BDE891
:10231000F0416047BDE8F08170B506460025FFF743
:10232000B1FA06F5D264D6F8D036AB4208D92046C9
:10233000103454F8043C1BB11B6801359847F2E790
:1023400070BD0000B0F5966F10B511D10421094899
:1023500005F068F8044658B1074B0849036005F0DA
:102360000AFA224606490348BDE8104005F01AB9AA
:1023700010BD00BFA82500244922040841220408FA
:102380004322040810B4D0E9013401686210E40764
:102390005DF8044B01EB020044BF8A58D35818473C
:1023A00010B4D0E9013401686210E4075DF8044B11
:1023B00001EB020044BF8A58D3581847134B03F16E
:1023C000740270B503600446C0F8A02400F5D2661C
:1023D00003F1D40200F5DA65E433C0F8A424C0F8B0
:1023E000B834AE4204D0103D2846FEF7D1FDF8E7E0
:1023F00004F5BA601DF08CFE04F5946019F03AFB08
:102400002046FFF70DFB204670BD00BF6CDD0708BE
:10241000A0F59460FFF7D2BFA0F2A440FFF7CEBFB3
:1024200010B50446FFF7CAFF40F2D46120461AF007
:102430008FFE204610BDA0F2A440FFF7F1BFA0F52B
:102440009460FFF7EDBF00007FB50446FFF70AFA7E
:10245000254B2046C4F88C36FFF70CFA234B204658
:1024600000940393224B019300230293FFF7FAF9A0
:10247000D4F8D056032D03D92046FFF7FBF915E019
:1024800005F169066B1C04EB0616C4F8D03630461D
:10249000FEF77EFD039B04EB0515C5F89C36002B6B
:1024A000EAD05B68694630469847E5E76846FEF73C
:1024B0006FFD104B694604F5BA6003930E4B009311
:1024C0000E4B0193002302931DF09CFD6846FEF71E
:1024D0005FFD04B070BD6846FEF75AFD30F06AFA41
:1024E0006846FEF755FDF9E74523040858DD07085F
:1024F000792604084CDD0708A82500247922040861
:10250000A0F59760FFF7A0BF2DE9F7430F46994666
:102510000021144B00F14005044603609046016120
:1025200028461BF08FF804F1540630461BF028F8BB
:102530000A9B42463946204600934B461DF056FD05
:102540000CE030461BF05CF828461BF0BAF8201D62
:10255000FEF71EFD30F02EFAF6E7F8E7204603B04E
:10256000BDE8F083701408082DE9F3411E460446C7
:10257000884615462DF0D0F8BDF8243001462A468D
:1025800001932046BDF820300093334604F594664D
:10259000FFF7E8FB0021304619F042FA4FF47A7356
:1025A000002504F5BA6704F59960C4F8C0342946DB
:1025B000264BC4F8BC5403F174022360C4F8A02471
:1025C00003F1D402E433C4F8A4244FF48072C4F8B5
:1025D000B83433F05DFCC4F8C85500952B46C4F8F8
:1025E000CC554FF4805218213846FFF78DFFC4F8C0
:1025F0009C56C4F8AC56C4F8BC56C4F8CC56C4F8C3
:10260000D056C4F88C56B8F1000F1BD02046FFF707
:1026100079FC17E004F5DA6504F5D268454504D085
:10262000103D2846FEF7B4FCF8E738461DF070FD73
:10263000304619F01FFA2046FFF7F2F930F0BAF9E8
:10264000F6E7F8E7204602B0BDE8F0816CDD070848
:1026500038B50546FFF706F995F8903253B9D5F825
:102660009844FF2C28BFFF24E4B22846FFF702F964
:10267000204638BD0024F8E710B50446D4F8C82534
:10268000D4F8CC359A421FDBD4F8C835D4F8CC2521
:10269000C3F1FF031344F3B12046FFF7D9FFD0B1D4
:1026A000236820461B6C9847D4F8C835D4F8CC254D
:1026B0000133DBB29342E1D0D4F8C825224482F83A
:1026C000C804C4F8C835D9E7D4F8CC35D4F8C8253F
:1026D0009B1A013BDFE710BD10B50446FFF7CCFFA6
:1026E000D4F8CC25D4F8C8359A4205D0D4F8CC35E6
:1026F0001C4494F8C80410BD4FF0FF30FBE7A0F570
:102700009760E9E710B50446FFF7B6FFD4F8C805AF
:10271000D4F8CC35C01A48BF00F5807010BDA0F5C4
:102720009760EFE710B50446FFF7A6FFD4F8CC2575
:10273000D4F8C8359A420BD0D4F8CC35234493F85A
:10274000C804D4F8CC350133DBB2C4F8CC3510BDA5
:102750004FF0FF30FBE7A0F59760E3E790F87000DB
:102760007047000037B5104C0022104D68212046FC
:1027700004F0C2FD2A460E4920461AF055FA42F2EC
:10278000120301220B4CCDE9003200224FF4F85322
:1027900020461146FFF7E8FE2A460749204603B0C7
:1027A000BDE830401AF040BAA82500249803002460
:1027B00017730408D41E0024BD23040808B531F0A3
:1027C000A1FD2DE9F84306460D46071D00F1070956
:1027D000002417F8011B0A22284600F08BF88046D7
:1027E0002E21284600F039F84F4540440444F0D1EA
:1027F0000A22F179284600F07DF82044BDE8F883EC
:1028000030B58371034D9DF80C3005600171427144
:10281000C37130BD84DE0708024B034A1A600022F0
:102820005A6070470426002484DE070870B5044609
:1028300008460D4634F024F923680246294620460E
:102840005B68BDE87040184709B1FFF7EFBF084665
:10285000704708B5FFF7F8FF08BD03681B68184705
:102860000B460A6801461268184610470149FFF7EF
:10287000DDBF00BFDF43080838B50546FFF7E4FFBA
:1028800004462846FFF7F2FF204438BD38B5054618
:10289000FFF7E6FF04462846FFF7E8FF204438BD6F
:1028A00070B58AB00D460023012A98BF0A220AA9F2
:1028B00001F8043DB5FBF2F402FB14562546F3B2D1
:1028C000092E94BF30333733DBB201F8013D002CC1
:1028D000F0D1FFF7B9FF0AB070BD10B42AB9036890
:1028E000C9B25DF8044B1B681847D2B25DF8044BBF
:1028F000FFF7D6BFFFF7F1BF10B50446006808B177
:1029000032F084FE204610BD10B50446006808B1C0
:1029100032F07CFE00232360C4E9013310BD38B5DA
:1029200004460D460068013133F0BEFB10B1C4E926
:102930000005012038BD036810B5044623B1436883
:102940008B4201D3012010BD2046FFF7E8FF00288D
:10295000F9D0A368002BF5D122681370F2E770B5A7
:102960000E46114604461546FFF7E5FF20B92046FE
:10297000FFF7CAFF204670BDA5603146206833F0DE
:10298000EDFFF7E738B5002304460D468360C0E944
:10299000003339B1084634F073F829460246204620
:1029A000FFF7DDFF204638BD38B505460C46084622
:1029B00034F066F8214602462846BDE83840FFF765
:1029C000CEBF88420B4610B5044604D0096821B139
:1029D0009A68FFF7C4FF204610BDFFF795FFFAE79E
:1029E000002310B504468360C0E90033FFF7E9FF18
:1029F000204610BD10B5044619B1FFF7D5FF20469B
:102A000010BDFFF781FFFAE770B505460E4609B91C
:102A1000002070BD6AB1846814442146FFF78BFF23
:102A20000028F5D028683146AB68184433F096FF8B
:102A3000AC600120EDE707B500238DF804100122FA
:102A400001A98DF80530FFF7DFFF03B05DF804FB47
:102A500010B58A6804460968FFF7D6FF10B920460A
:102A6000FFF752FF204610BD826808B53AB921B180
:102A70000878B0FA80F0400900E0012008BD006845
:102A800009B90078F5E733F0FFFDF2E708B58A6889
:102A9000836893420BD3006840B1096849B19B1A1F
:102AA000184433F0F1FDB0FA80F0400908BD002071
:102AB000FCE70846FAE7000010B500F047F80A4CBA
:102AC000FEF722FBFEF7A6FEFEF79AFE4FF4E13179
:102AD0000648FFF7B9FCFDF7F9FDFDF75BFC002C9C
:102AE000FBD0AFF30080F8E700000000D41E002404
:102AF00070B505460024074EFEF7E4FAE3B29842AB
:102B000006D918461B010134F35EAB42F4D170BD07
:102B1000FF20FCE7D803002410B5044602F0B9FEFC
:102B2000204610BD07B50749684602F0F1FE4FF494
:102B30007A720023DDE9000130F08EFA03B05DF80F
:102B400004FB00BF102600241DF0E8B9014802F084
:102B5000AABE00BF1026002410B5054C204602F086
:102B600013FF2046034A0449BDE810401AF05CB840
:102B70001026002498030024192B040870B504467D
:102B80000D46164600211C2233F082F920463246BB
:102B9000294618F08FFA204670BD00002DE9F0415B
:102BA000204D060180460F46AB19DC68B4B9FEF72C
:102BB00089FA80454FF01C0034BF35F906804FF08C
:102BC000FF381AF091FA044600211C2233F060F914
:102BD0004146204618F06BFA3544EC60012F10D0C6
:102BE00006D3022F12D0204601F066FE022103E038
:102BF000204601F061FE00212046BDE8F04101F0D1
:102C000067BE2046BDE8F04101F04ABE204601F013
:102C100053FE0121F0E71C2120461AF099FA2FF00B
:102C2000C9FE00BFD803002430B589B004460D4664
:102C3000FFF75EFFC0B2FF2804D02946FFF7AEFFC2
:102C400009B030BD012D0AD003D3022D12D00222CB
:102C500000E00022214601A8FFF790FFF0E71C22C8
:102C6000002101A833F014F90022214601A818F030
:102C700023FAE5E70122EDE72DE9F341074688460F
:102C8000FEF720FA87422ED21D4D3E01AB19DC68BB
:102C9000CCB9FEF717FA87424FF01C0034BFAF5F84
:102CA0004FF0FF371AF020FA04461C22002133F0BF
:102CB000EFF8CDF80080002301223946204618F0B5
:102CC00014FA3544EC600F4B0F491A46D3F89400C0
:102CD0008842FBD12368B8F1000F07D0A1680B60D0
:102CE0004FF44073536102B0BDE8F081E1681B040A
:102CF000F5E71C2120461AF02BFA2FF05BFE00BFEF
:102D0000D8030024006402580003008030B589B065
:102D100005460C46FFF7ECFEC0B2FF2804D0214662
:102D2000FFF7AAFF09B030BD1C22002101A833F033
:102D3000AFF8294601A818F0D5F9094B09491A46F8
:102D4000D3F894008842FBD1019B2CB103990B600E
:102D50004FF440735361E5E71B040499F7E700BFA4
:102D60000064025800030080036818470020704781
:102D7000002070472DE9D04F9B46036892460446D9
:102D80009B6ADDE90889984702460B46504659463A
:102D900030F0B2F9134302D00020BDE8D08F236891
:102DA00020469B6A984702460B464046494630F00B
:102DB000A3F91343F0D11AEB0806236820464BEB26
:102DC00009079B6B9847B94208BFB0422CBF01204E
:102DD0000020E2E72DE9D04F9B4603689246044667
:102DE0005B6ADDE90889984702460B46504659461A
:102DF00030F082F9134302D00020BDE8D08F236861
:102E000020465B6A984702460B464046494630F0EA
:102E100073F91343F0D11AEB0806236820464BEBF5
:102E200009079B6B9847B94208BFB0422CBF0120ED
:102E30000020E2E70368DB6A1847012000217047A1
:102E40004FF4807000217047D0F860010021704776
:102E50000048704793DF070800F58870D0E900014B
:102E60007047FF207047F0B587B01746051D002258
:102E70000E9B06461146284605930823CDE90022FD
:102E8000CDE90223022301F093FF044608B107B005
:102E9000F0BD05AB4FF0FF325A21284601930C9B41
:102EA00000933B4602F038F822460746214696F842
:102EB000E2312846CDE90244CDE9004401F078FF33
:102EC000044600280CBF38462046E0E701682DE99B
:102ED000F04114461D46096B0646884702460B46DC
:102EE0002046294630F008F9134302D00020BDE8FF
:102EF000F081DDE906233046A71845EB030817F1FA
:102F0000FF323368196B48F1FF33884702460B469E
:102F10003846414630F0F0F81343E7D13368304685
:102F20009B6B9847414508BFB8422CBF0120002049
:102F3000DDE710B5044619461046D4F818310133C0
:102F40001AD104F5847202F00AF9431CD4F8602106
:102F500009D020440121002390F85401084205D0F3
:102F6000723354F823201046D11710BD01334900A5
:102F7000042B49B2F2D1F6E74FF480500021F4E778
:102F80002DE9F003164604681F46069DD0E901129C
:102F9000DDE908895310D207324604EB030044BF31
:102FA000E35859583B460695CDE90889BDE8F0033A
:102FB000084730B5039D00241C702C708C7814F0E9
:102FC000200F15D04A7AC0F8E02001221A700B7A3F
:102FD00003F01F0380F8E5310B7A5B119B0080F84A
:102FE000E331022380F8E13180F8E631002030BD82
:102FF000102A0FDD0A7CD2060CD5CA7EC0F8E0206C
:1030000001221A702A708B7E03F01F0380F8E531CD
:103010008B7EE2E762060FD5CA7AC0F8E020012273
:103020001A708B7A03F01F0380F8E5318B7A5B11FD
:1030300080F8E3310223D7E70B7CDD070ED5CB7D8B
:10304000C0F8E0308B7D03F01F0380F8E5318B7D05
:103050005B115B0080F8E3310123C3E7E20609D589
:10306000CB7BC0F8E0308B7B03F01F0380F8E531A9
:103070008B7BEDE7E3070DD54B7BC0F8E0300B7B96
:1030800003F01F0380F8E5310B7B5B1180F8E3311F
:103090000123A9E70323C0F8E030A7E72DE9F047B3
:1030A000089F04460D461646DDF82880DDF830906E
:1030B000DDF838A000F087F958B9CDF820803B46FC
:1030C00032462946201DCDE9099ABDE8F04701F0B6
:1030D00091BFBDE8F08700002DE9F04F91F839303D
:1030E0008BB091F8382007461B0103F0100343EA28
:1030F0001213013B0F2B1AD8DFE803F00808191D43
:103100001919192C19191919191919520021002303
:1031100000204FF0FF32049300934FF0FF33CDE9CE
:103120000601CDE9020138213846FFF7B7FF00203C
:103130000BB0BDE8F08F0021002300204FF0FF32DC
:10314000049300934FF0FF33CDE90601CDE902016E
:103150003521E9E74FF001084FF0000909AE0024DE
:1031600000254FF0000A234A002365210496CDF87C
:1031700000A0CDE90689CDE90245FFF78FFF9DF854
:1031800024300496712143F04003CDF800A0194A81
:103190008DF824300023CDE90689CDE90245C3E747
:1031A0004FF001084FF0000909AC4FF0000A4FF052
:1031B000000B00254FF0FF324FF0FF3365210494E0
:1031C0000095CDE90689CDE902ABFFF767FF9DF8D1
:1031D000243004944FF0FF3203F07F030095612107
:1031E0008DF824304FF0FF33CDE90689CDE902ABED
:1031F0009AE700BF03008000D0B503268AB00027FD
:10320000002309AA9F21ADF8243004468DF826300A
:1032100004924FF0FF3200934FF0FF33CDE9066781
:1032200000260027CDE90267FFF738FFA8B99DF80F
:103230002430BF2B07D0C22B09D09D2B05D10123F1
:10324000C4F8E43001E084F801010AB0D0BD1523D0
:1032500084F8F000C4F8EC30F7E74FF0FF30F4E703
:103260002DE9F04300238BB0054642F2107401268D
:1032700000274FF000084FF000098DF8273001209B
:103280001CF04CFE0DF127034FF0FF320521049393
:103290000023284600934FF0FF33CDE90667CDE9C0
:1032A0000289FFF7FBFE9DF82730DB0705D5013CBF
:1032B000E5D120460BB0BDE8F0830120FAE700001D
:1032C00070B591F83D3088B0064613F008021BD067
:1032D0000023002400254FF0FF320493F0210093D7
:1032E0004FF0FF33CDE90645CDE90245FFF7D6FEA5
:1032F00010B1154808B070BD3046FFF7B1FF002887
:10330000124818BF0020F5E7DB06F2D5002400259F
:1033100004924FF0FF33009266214FF0FF32CDE967
:103320000645CDE90245FFF7B9FE0028E1D104903A
:103330004FF0FF3200904FF0FF3399213046CDE936
:103340000645CDE90245D1E75EF0FFFF5DF0FFFFE6
:10335000F0B500238BB0002400258DF827304FF006
:10336000FF320493062100934FF0FF330646CDE968
:103370000645CDE90245FFF791FE074618B14FF02B
:10338000FF300BB0F0BD3046FFF76AFF0028F6D0E3
:1033900001220023009705213046CDE906230DF1D7
:1033A00027034FF0FF3204934FF0FF33CDE902457E
:1033B000FFF774FE0028E2D19DF8270080F002009C
:1033C00040F34000DDE710B5D0F8F41086B00446B5
:1033D000013117D0120E8DF81720FFF7B9FF70B921
:1033E00001234FF0FF32D4F8F41000930DF11703CE
:1033F000CDE90100201D01F0FDFD06B010BD4FF02C
:10340000FF30FAE790F8E21103290ED0591C08BFEB
:10341000B2F1FF3F09D0002B08BFB2F1807F2CBF73
:103420004FF0FF30002040B2E7E70020E5E72DE94C
:10343000F04786B0924604468946109BDDF83880F6
:10344000059342460F9BFFF7BEFF054698BB94F8D5
:10345000E501271D94F8E121039094F8E60194F822
:10346000E231029094F8E30194F8E011CDE90020F4
:10347000384601F09DFC05460646E0B994F8E32184
:1034800005AB49463846B2FA82F25209CDE900A3AB
:103490005242434601F040FD054694F8E23132467F
:1034A00031463846CDE90266CDE9006601F080FC80
:1034B000002818BF0546284606B0BDE8F0872DE96C
:1034C0007F4300F1BC0504460E46904628469946C7
:1034D0001AF05EF82046DDE90A23CDE90089CDE93E
:1034E00002233246D4F8E010FFF7A1FF0028284657
:1034F0000CBF00246FF47A641AF068F8204604B018
:10350000BDE870832DE9F041069C1746079B0546F0
:1035100022460E46DDF82080FFF755FF50B92346BE
:103520003146281D4FF0FF32CDE90678BDE8F04165
:1035300001F029BDBDE8F0817FB504460D46164671
:10354000FFF741FF40B90090034632462946CDE9D6
:103550000100201D01F04EFD04B070BD2DE9F047C3
:1035600088B00446884600F1BC050DF11809CDE984
:103570000423DDE9102313434AD0D4F8D8A100274F
:1035800052463B46DDE904012FF0B6FDDDE91001AE
:1035900080185941B9424FF0000708BF50452846EE
:1035A0002CBFAAEB020ADDF840A05646CDE906671B
:1035B00019F0EEFF2046FFF7CBFE70BBCDF8089068
:1035C00002212046DDE90423CDE900234246FFF72E
:1035D00099FF38BBDDE906239F4208BF924521D100
:1035E0002046D044DDE9042312EB0A027B41CDE9F9
:1035F0000423DDE91023B2EB0A0263EB0703CDE9F4
:103600001023FFF72DFE80B1284619F0DFFFB0E749
:103610000024204608B0BDE8F087054C284619F084
:10362000D5FFF6E76FF47A64F8E7024CF6E700BFDF
:103630005CF0FFFF5DF0FFFF2DE9F04F164687B00D
:10364000044600F58472194630461F46DDE91089AC
:1036500001F085FD231818EB0602454693F8543116
:10366000824690468DF8173049EB0703994604F5DA
:103670008873D3E900234B4508BF42457BD32368B9
:1036800032462046D96C3B46884702460B463046B8
:1036900039462FF031FD13436DD118F1FF32236805
:1036A0002046D96C49F1FF33884702460B46404615
:1036B00049462FF021FD13435DD104F59073039328
:1036C000002D5DDDD4F818B1BBF1FF3F50D1039B55
:1036D000324629460DF117000093534601F061FD73
:1036E00004EB8000D0F8B8B1D0F8C881424600237E
:1036F000304639462FF000FDAB1804F1BC094345B4
:1037000048462CBFA8EB0208A84619F041FF204606
:10371000FFF71EFEB0BB2A46EB1759462046CDE9FF
:10372000002332463B46FFF707FF80BB16EB080637
:10373000A5EB080547F10007002D11DD0AF12D0367
:1037400004EBC303D3E90023BB4208BFB2423FBF2F
:103750000AF1010A04EB0A0393F854318DF817308B
:103760002046FFF77DFDA8B1484619F02FFFA7E7D7
:103770004FF48058BAE7084C204607B0BDE8F08FF8
:103780000024F9E7054C484619F020FFF4E76FF4F0
:103790007A64F8E7024CF6E75BF0FFFF5CF0FFFFAE
:1037A0005DF0FFFF3F2A2DE9F04705468AB040F360
:1037B000A88091F83F3013F0400218D00323002472
:1037C00085F8E23195F8E231032B0CD10022281D57
:1037D000CDE90222CDE90022114601F0E9FA0028E4
:1037E00018BF6FF47A6420460AB0BDE8F087D907A5
:1037F00010D50026002704924FF0FF330092B72126
:103800004FF0FF32CDE90667CDE90267FFF746FCCE
:1038100090BBD3E713F0020212D0FFF799FD002806
:103820006DD1002200230490B72100902846CDE9F5
:103830000623CDE902234FF0FF324FF0FF33E5E7D7
:1038400013F010013BD00DF1280A012600274FF09C
:1038500000084FF000090AF8012D4FF0FF330092E5
:10386000CDF810A04FF0FF32B521CDE90667CDE9C4
:103870000289FFF713FC08B1234CA3E79DF827301A
:10388000284643F001038DF82730FFF761FD044619
:10389000002834D104904FF0FF32CDF800A04FF053
:1038A000FF33B1212846CDE90689CDE90267FFF74C
:1038B000F5FB0028E0D1032385F8E23182E713F01D
:1038C000080213D00AAB80220026002703F8012D3E
:1038D0004FF0FF320491172100934FF0FF33CDE9F1
:1038E000066701260027CDE902678FE713F004047D
:1038F0004FF00203E0D0C521C0F8F4105FE7034C9D
:1039000060E700246FE700BF5EF0FFFF5CF0FFFFA1
:10391000F0B5012289B00023002600270C4604914F
:1039200005210546CDE9062300234FF0FF32009321
:103930004FF0FF33CDE90267FFF7B0FB98B9D5F838
:10394000E430013B0FD0013400904FF0FF32D5F846
:10395000EC100494CDE90630CDE902674FF0FF3357
:103960002846FFF79BFB09B0F0BD00002DE9F047AA
:10397000D0F8E83088B004468A4601331DD1FFF7FD
:10398000E7FC28B14FF0FF35284608B0BDE8F087C6
:103990000022002301210490CDF800A0CDE90623E8
:1039A000D4F8E4304FF0FF32CDE902304FF0FF336E
:1039B0002046FFF773FB0546E6E7D0F8E430022B1C
:1039C00005D040F2BF521949194818F0F7FBFFF72C
:1039D000BFFC0028D6D14FF000084FF000090126A7
:1039E000002704904FF0FF32CDF800A04FF0FF33D6
:1039F00001212046CDE90689CDE90267FFF74EFB9C
:103A000005460028C0D12046FFF7A2FC0028B9D106
:103A100004954FF0FF32CDF800A04FF0FF33D4F8FB
:103A2000E810CDE90689CDE90267C1E7BBDE0708EA
:103A300009DF070873B591F83A2000230446C2F362
:103A40000212ADF800308DF80230013AADF80430C2
:103A50008DF80630042A5DD8DFE802F0034E5203E9
:103A600003000123C0F8F830C4F8FC30D4F8F83073
:103A7000591C09D0D4F8FC104A1C05D002AA1344E2
:103A800001228A4003F8082C01A92046FFF740FFD5
:103A90009DF804309DF8006001A99DF80150204672
:103AA00033439DF802208DF804309DF805302B43F8
:103AB0008DF805309DF8063013438DF80630FFF77A
:103AC00055FF2046FFF7CCFB30B3002301A9204669
:103AD000ADF804308DF80630FFF71AFF9DF804307A
:103AE0001E409DF805301D4056EA05030CBF4FF0FF
:103AF000FF30002002B070BDC0F8F8300623B3E7F5
:103B0000C0F8F83007233E25C0F8FC303F23C0E959
:103B10003A53ABE70020EDE74FF0FF30EAE730B56E
:103B200000238BB00546ADF824308DF82630FFF722
:103B300097FB18B94FF0FF300BB030BD95F801413D
:103B40004CB1012C1FD02846FFF78AFB80F0010002
:103B5000C0B24042F0E72846FFF7FAFB0028E9D15F
:103B6000002200230490982100902846CDE90623E6
:103B7000CDE902234FF0FF324FF0FF33FFF78EFA0B
:103B80000028E0D0D6E709A92846FFF7C1FE0028A3
:103B9000D0D1D5F8F8307BB9D5F8FC309C4044F052
:103BA0000304E4B29DF8243009A928461C408DF88E
:103BB0002440FFF7DBFEE3E70324F3E730B5D0F85A
:103BC000E43087B00446032B05D040F28F422049F1
:103BD000204818F0F3FA0022022304301146ADF811
:103BE00014208DF81620CDE90222CDE9002201F043
:103BF000DFF818B14FF0FF3007B030BD05A92046FF
:103C0000FFF786FE0028F5D19DF81630204643F0D8
:103C100002038DF81630FFF79BFB0028EAD105A9B7
:103C20002046FFF7A3FE05460028E3D12046FFF714
:103C300017FB0028DED005A92046ADF814508DF8FA
:103C40001650FFF765FE003018BF01204042D3E751
:103C5000BBDE0708A0DE0708F0B516460446C868B4
:103C60009BB012680023756828B94FF4FD72334980
:103C7000334818F0A3FACDE9025306AD0095076862
:103C80000846B84718B14FF0FF301BB0F0BD04F53F
:103C900084772846394601F0BAFA0028F3DB394622
:103CA000284601F0ADFA0028EDDB7168284601F0E6
:103CB0001AFA2946C4F8D8012046FFF701FB00286C
:103CC000E1D18DF8160039468DF81700284601F02D
:103CD00015FA0028D7DB0DF1170372682946204634
:103CE00000930DF11603FFF764F99DF8163093B1B8
:103CF00094F8003113B12046FFF760FF29462046B3
:103D0000FFF798FE0028BED19DF817301BB1294659
:103D10002046FFF7E1F994F8F0303BB92046FFF771
:103D20009FFA80F00100C0B24042AEE772682946B7
:103D30002046FFF737FD0028F0D0A4E724DF07086E
:103D400042DF070810B586B00446684680E80C00DC
:103D500006A800E90C00064BE360034643F80C1D7F
:103D600093E8070084E80700204606B010BD00BFB6
:103D700094DE07082DE9F047D0F8B4508EB0044621
:103D800055B14C4A4C4BB5F1FF3F0CBF15461D4693
:103D900028460EB0BDE8F08700F1BC09271D484653
:103DA00019F0F6FB94F8E2312A4629463846CDE967
:103DB0000255CDE9005500F0FBFF28B16FF47A659C
:103DC000484619F003FCE3E794F8EC310BB9C4F86A
:103DD000E851D4F8E8610136012EC4F8E861EFD16A
:103DE0000023D4F8DC11384684F8E33184F8E53157
:103DF00001F02CF805460028E0D12046FFF730FA04
:103E0000002854D02046FFF7F7F90028D6DBDFF86A
:103E1000B48008AB04F584772146C4F808510AA899
:103E2000C4F80C51C4F82051C4F82451CDE90885D8
:103E30000CCBFFF787FF39460AA801F0FFF982464D
:103E40000AA8FDF7A5F8BAF1000F01DA1B4DB7E794
:103E500006AB21460AA8CDE906850CCBFFF772FF19
:103E60003A460AA92046FFF7F7FE82460AA8FDF760
:103E70008FF8BAF1000FE9DB04AB21460AA8CDE9BF
:103E800004850CCBFFF75EFF39460AA801F01BFA48
:103E900005460AA8FDF77CF8002DD7DB2046FFF782
:103EA0003EFE05460028D1D184F8EC6188E7044D38
:103EB00086E700BF5AF0FFFF59F0FFFF5EF0FFFFFB
:103EC0005DF0FFFF672E0408F8B50446074654F876
:103ED000045B8DB90D4E306818B14FF0FF311BF007
:103EE00007F83D6825B92046254619F049FB3C6096
:103EF000306808B11BF014F8AC4204D08B2204499E
:103F0000044818F05BF92046F8BD00BF687700242C
:103F10004EDF070870DF0708F8B518480E46FFF7B0
:103F2000D3FF19F035FB164A1068092820DC154B21
:103F30001B689D1E1C4603F1120135F9027FB74232
:103F400019D08D42F9D1143321460234B1F9005011
:103F500001350AD10E800130002410600748FFF7B8
:103F6000B3FF19F033FB2046F8BD9C42ECD1F2E7D9
:103F70006FF00104F2E74FF0FF34EFE7282600244A
:103F800054260024502600247FB52C4D0446BDF94C
:103F9000286040F8045B0B9DCDE90265BDF9245013
:103FA0000195BDF920500095002500F0B1FEA4F860
:103FB000B86004F1BC0019F0E3FA0C9B3146C4F878
:103FC000E851C4F8DC31204684F8EC51FFF7A4FF37
:103FD0004FF0FF33C4F8B40004F5887200200021CC
:103FE000C4F81831C2E90001022103200122C4F8FB
:103FF000605184F8E211C4F8282184F8545184F8FF
:10400000005184F8E05184F8E15184F8E35184F8D8
:10401000E55184F8E651C4F8E83084F8012184F8C9
:10402000F020C4F8F430C4E9380135212046C4E951
:104030003E33C4F8EC1004B070BD00BFA4DF070825
:1040400010B513480C46FFF73FFF19F0A1FA114BCA
:104050001B6803F114001A460233B2F90010A142A2
:104060000AD14FF6FF7313800B4A1368002B01DD52
:10407000013B1360002403E08342ECD14FF0FF3496
:104080000348FFF721FF19F0A1FA204610BD00BF39
:10409000282600245026002454260024F0B500F1E0
:1040A000BC07044689B0384619F072FA94F8EC510E
:1040B0003DB9C4F8E851384619F088FA284609B0E5
:1040C000F0BDD4F8E861013EC4F8E86126B1384695
:1040D000002519F07BFAF1E7002200230421049661
:1040E00000962046CDE90623CDE902234FF0FF33A9
:1040F0004FF0FF32FEF7D2FF002884F8EC6138461B
:104100000CBF00256FF47A6519F060FAD4F8B4306A
:10411000002BD3D1B4F9B8102046FFF791FFCDE7BB
:1041200008B5142018F0F8FF4FF6FF71831E00F158
:10413000120223F8021F9342FBD1014B186008BD05
:1041400050260024CB68C3600BB15B6818477047EA
:10415000C36810B52BB94FF4FD720449044818F038
:104160002DF81B68BDE81040184700BF24DF070882
:1041700042DF07080020704700207047002070478A
:10418000002070477047036853F8683C1844704734
:10419000C36810B52BB94FF4FD720449044818F0F8
:1041A0000DF81B68BDE81040184700BF24DF070862
:1041B00042DF070808B5FCF7EBFE08BDC36810B581
:1041C0002BB94FF4FD720449044817F0F7FF1B6840
:1041D000BDE81040184700BF24DF070842DF07088A
:1041E0000368012200211B691847036800221B692C
:1041F0001146184780F8CC120020704780F8501202
:104200000020704790F8CC02704790F85002704739
:1042100000207047012070476FF01C00704770B598
:1042200000F5267405460E46204619F0B1F93146D0
:10423000284601F08CFA204619F0C8F9002070BD1C
:10424000A0F17C00FFF7EBBF70B500F526740546C2
:104250000E46204619F09CF93146284601F0C8FA6E
:10426000204619F0B3F9002070BDA0F17C00FFF7E3
:10427000EBBF10B4D0E9013401686210E4075DF8C7
:10428000044B01EB020044BF8A58D3581847012061
:1042900070476FF01C007047002070470C4B10B542
:1042A000036048330446C367D0F8D40210B10368F2
:1042B0005B68984704F52F70FCF76AFE04F52670DA
:1042C00019F09EF9204601F009FA204610BD00BF02
:1042D00008E00708A0F17C00FFF7E0BF10B5044636
:1042E000FFF7DCFF4FF43671204618F031FF20460F
:1042F00010BDA0F17C00FFF7F1BF08B5D0F8D402E3
:1043000020B100F067FC003018BF012008BD30B5B7
:10431000002485B0054622466946039401F09FF9C2
:104320006846FCF735FE85F8CE4205B030BD30B5A5
:1043300085B00024012205466946039401F08FF9F7
:104340006846FCF725FE85F8CD4205B030BD10B5B6
:10435000044618F021F8D4F80021D4F804319A4228
:104360000ABF94F80841002484F0010418F02AF8E8
:10437000204610BD38B5054600F5267405F5C6750E
:10438000204619F005F92846FFF7E1FF48B9204615
:1043900019F01CF9012019F054F8204619F0F8F82A
:1043A000F1E7204619F012F9002038BDA0F17C0099
:1043B000FFF7E0BF38B505468030FFF7C8FF80F053
:1043C0000100C4B22846FFF798FF18B144F4005426
:1043D000204638BD17F0E0FF95F8945217F0F2FF31
:1043E000002DF5D144F01004F2E7A0F17C00FFF7B6
:1043F000E1BF70B504460D4617F0CEFF17F0CCFFB5
:1044000094F8086117F0DEFF46B1D4F804310133A7
:10441000B3F5807F08BF0023C4F80431D4F800212D
:10442000531CB3F5807FC4F80031297808BF0023FE
:10443000A15408BFC4F80031D4F80431D4F80021E5
:104440009A4204BF012384F80831BDE8704017F098
:10445000B9BF38B504460D4617F09EFF2046FFF75A
:1044600076FFB0B9D4F804315A1CC4F80421E35CD7
:104470002B70D4F80431B3F5807F4FF0000308BFF0
:10448000C4F8040184F80831012417F09BFF20468A
:1044900038BD0024F9E7000010B586B00446684630
:1044A00080E80C0006A800E90C00064BE360034618
:1044B00043F80C1D93E8070084E80700204606B087
:1044C00010BD00BFF4DF070830B50C4B87B00025E6
:1044D000044600936B460195014602A80CCBFFF7FA
:1044E000DBFF2A4602A9204601F0B9F802A8FCF732
:1044F0004FFD012384F8CE3207B030BDFF450408DC
:1045000038B5044601F024F8154B002504F5267053
:1045100003F108025033C4F880512260E367C4F805
:10452000845184F88851C4F88C52C4F8905284F8AD
:10453000945219F025F801232046C4F8C85284F893
:10454000CC3284F8CD5284F8CE5284F8CF3284F83D
:10455000D032C4F8D452FFF7B7FF204638BD00BFB1
:1045600000E0070810B50C4B86B0044601460093E6
:10457000002302A801936B460CCBFFF78DFF0122AD
:1045800002A9204601F06BF802A8FCF701FD012307
:1045900084F8CD3206B010BD1547040870B5054645
:1045A0000E4617F0F9FE05F52F74B4420AD02046E6
:1045B000FCF7EEFCF368C5F8C8321BB15B68314606
:1045C00020469847D5F8C83243B147F6FF712846D0
:1045D000FFF7F0FE10B12046FFF7BAFDBDE87040CE
:1045E00017F0F0BEA0F17C00FFF7D8BF08B5D0F8F7
:1045F000C8321BB100F52F70FFF7AAFD08BDF7B553
:1046000000F1800504462846FFF7A1FE064617F094
:10461000C3FE94F8887117F0D5FE77B9204600F0F4
:10462000E2FF50B1204601F000F80DF107018DF8CE
:1046300007002846FFF7DDFEE9E794F8CE324BB1DC
:1046400017F0AAFE94F8887117F0BCFE17B1204647
:10465000FFF75DFE36B12846FFF779FE10B9204618
:10466000FFF7C4FF03B0F0BD2DE9F04707468A46C7
:104670001546002A48D000F5267807F18006404606
:1046800018F086FF3046FFF762FE90B197F8CC3203
:1046900040462BB918F09AFF6FF00A00BDE8F0878A
:1046A00018F094FF012018F0CCFE404618F070FF7F
:1046B000E8E70446A5420AEB040909D03046FFF7B3
:1046C00046FE28B949463046FFF7C3FE0134F1E7FC
:1046D00017F062FE97F8D0327BB197F8CE3263B90B
:1046E0003846FFF78CFF17F057FE97F8885117F000
:1046F00069FE15B93846FFF7E7FE17F063FE40463E
:1047000018F064FF2046C9E71046C7E7A0F17C0017
:10471000FFF7AABF73B5044617F03EFE04F5C67650
:1047200094F8945217F04EFE204600F06DFF58B1F9
:104730000DF107013046FFF78CFE28B19DF80710F8
:10474000204600F075FFEFE794F8CD323BB104F559
:10475000C670FFF7FCFD10B12046FFF7E8FD6DB114
:1047600017F01AFE94F8945217F02CFE35B9204633
:10477000FFF7C3FD10B92046FFF738FF02B070BD48
:10478000F8B505460C46164600F5C6773846FFF7DD
:10479000DEFD40B1A719BC4209D014F8011B284620
:1047A00000F046FFF7E72846FFF7B4FFEEE7304694
:1047B000F8BD2DE9F04704460E469046002A69D020
:1047C00017F0E7FD054630B1424631462046BDE8C8
:1047D000F047FFF7D5BF04F5267904F5C6774846BC
:1047E00018F0D6FEA8454BD917F0D6FD94F894A240
:1047F00017F0E8FDBAF1000F15D094F8CC32002B79
:104800003ED0484618F0E2FE012018F01AFE484655
:1048100018F0BEFE17F0C0FD94F894A217F0D2FD78
:10482000BAF1000FEDD117F0B7FD94F894A217F08C
:10483000C9FDBAF1000F21D101353146384606F1E4
:10484000010AFFF7D6FDA84516D1454617F0A4FD8D
:1048500094F8CF3263B194F8CD324BB92046FFF7CC
:1048600059FF3846FFF773FD10B92046FFF77AFE6F
:1048700017F0A8FD5646B5E75646D4E7B246E5E739
:10488000484618F0A3FE002D14BF28466FF00A001A
:10489000BDE8F0871046FBE7A0F17C00FFF789BF79
:1048A00010B5044617F078FD012120462BF0F6F8EC
:1048B000BDE8104017F086BD10B5044617F06CFD3A
:1048C000002120462BF0EAF8BDE8104017F07ABD31
:1048D00038B504460D4617F05FFD294620462BF0FB
:1048E000D9F8BDE8384017F06DBD0000094B30B570
:1048F0001A46094CD3F89450A542FBD1036829B15C
:1049000081680B604FF44073536130BDC1681B0474
:10491000F7E700BF006402580003008030B4446829
:1049200001466CB1D0E9032303F0010502B93DB1A2
:104930005B10E0180DB1E3589A58896830BC1047F5
:1049400030BC7047036870B5094D04461B68984732
:104950002B68A34206D0D4F8C81004F130002BF025
:1049600009FC2C60236820465B68BDE8704018474E
:1049700080260024F7B51D46036804460E461B68D2
:10498000174698472046FFF7DDFF9DF82030314657
:104990003A4683F0010304F1300000932B462BF0DC
:1049A00075FD2368064620465B689847A81B18BF1C
:1049B000012003B0F0BD70B590B00E461546002141
:1049C0001C2202A831F064FA01240023314602A817
:1049D00000941A4616F089FB1C22002109A831F028
:1049E00057FA0023009429461A4609A816F07DFBC1
:1049F0000A9B1A68099B1A4203D16FF0010010B09C
:104A000070BD039B1968029B194046D109A80A246E
:104A1000FFF75EFF09A8FFF743FF002109A8FFF792
:104A200057FF002109A8FFF761FF052018F00BFDD3
:104A3000012109A8FFF74CFF012109A8FFF756FF44
:104A4000052018F000FD013CE7D102A8FFF728FF80
:104A5000214602A8FFF74AFF052018F0F4FC0121C7
:104A600009A8FFF743FF052018F0EDFC012102A87B
:104A7000FFF73CFF052018F0E6FC02A8FFF71CFF3B
:104A800009A8FFF719FF0A9B1A68099B1A42B4D0BC
:104A9000039B1A68029B1A42AFD00020AFE70000C8
:104AA00008B50348FFF710FABDE8084018F070BDDC
:104AB0005826002408B50348FFF706FABDE8084069
:104AC00018F084BD58260024F8B51A4B0E4600F1A4
:104AD0003005002103600446174B174601619822F8
:104AE000816280F82C1080F82D104361C0E9060126
:104AF000C0E90811284631F0CBF9104B2046C4F824
:104B0000C830FFF7CDFF3A463146A4F8CC60A4F890
:104B1000CE702046FFF74FFFB4F9CE20B4F9CC1089
:104B200028462BF079FC064B20461C60FFF7C2FF9D
:104B30002046F8BDA0E007081D490408A086010032
:104B400080260024084B10B5044640F8203B2BF08B
:104B50008BF904F14000FCF71BFA04F13000FCF77C
:104B600017FA204610BD00BFB8E0070810B504468C
:104B7000FFF7E8FF5021204618F0EAFA204610BD62
:104B80000346024A20302BF087B800BF754C04085A
:104B900070B50F4B054604460E4645F8043B1C22F3
:104BA0000021284631F074F91022002104F1200080
:104BB00031F06EF9002331462046E363E364FFF7EA
:104BC000DFFF2846314616F072FA204670BD00BF5E
:104BD000B8E0070883681A6843681A4214BF0120C6
:104BE000002070472DE9F0410F46064617F0D4FB30
:104BF000FD6806F1300406F120088DB1A74206D009
:104C00002046FCF7C5F939462046FFF79BFA0122FA
:104C1000404601212AF0CEFFBDE8F04117F0D2BB9B
:104C20002046FCF7B5F9F5632A46F1E72DE9F04196
:104C30000F46064617F0B0FBFD6806F1400406F18A
:104C400020088DB1A74206D02046FCF7A1F93946CD
:104C50002046FFF777FA0122404602212AF0AAFFF8
:104C6000BDE8F04117F0AEBB2046FCF791F9F564C2
:104C70002A46F1E7012908B502D0022907D008BD6C
:104C8000C36B002BFBD03030FFF762FAF7E7C36C41
:104C9000002BF4D04030F7E77047000010B5044611
:104CA000D0F8900086B0012804D9002084F8940040
:104CB00006B010BDC0B2B4F99A30B4F9982004908F
:104CC000D4F88C00B4F996100390B4F9A0000290C7
:104CD000B4F99E000190B4F99C000090201D2CF0C6
:104CE000F3F838B9012384F89430044B1C6094F82D
:104CF0009400DDE7002384F89430F8E7AC26002424
:104D000010B50446B02118F023FA204610BD00006B
:104D1000F8B51D46214B04460F46164640F8043BA5
:104D20005C22002131F0B4F8BDF918300222A4F859
:104D30009670A4F89C302046BDF91C3084F862209F
:104D4000099AA4F89E30C4F89020BDF92030144A86
:104D5000A4F8A0300023C4F88C20124AA4F898606C
:104D6000A4F89A50C4F8A43084F8603084F8613014
:104D700084F8633084F8643084F86530C4F888308F
:104D800084F89430C4E92A23FFF788FF20B943222E
:104D90000549064817F012FA2046F8BDF8E0070862
:104DA00040420F009D4C0408C3E00708E5E00708F7
:104DB0002DE9F0479DF82070054689469046022F60
:104DC0009A469DF8246024D8134BDB5D0BB3B6FBE9
:104DD000F3F403FB146414F0FF041AD1026893681F
:104DE00098479DF8283085F86460284685F8653036
:104DF0000B9B85F86090C5F888302B6885F861803A
:104E000085F862A085F86370DB6898472046BDE8A6
:104E1000F0874FF0FF30FAE7C0E0070838B50A4DD9
:104E200004462A6882420BD0D0F8AC10D4F8A830DF
:104E30004A10C907104444BFA258D35898472C6061
:104E400094F8940038BD00BFAC26002438B590F823
:104E5000943004460D46DBB103689B6898470E4BBF
:104E6000C4F88C501B68A3420DD12946201D2CF09C
:104E70000FF8003018BF0120454223682046DB6848
:104E80009847284638BD20460025FFF7C7FFF4E7BE
:104E90004FF0FF35F5E700BFAC260024F8B5044617
:104EA0000F4616460021202268301D4630F0F0FFE4
:104EB00094F86030791C84F8683016BF0023012311
:104EC00084F86970721C84F86A3094F8613018BFF5
:104ED000266784F86C3094F8623084F86D3014BF23
:104EE0000023012384F8743094F8633084F8783018
:104EF00094F8643084F879306B1C16BF00230123CA
:104F0000E56784F88030D4F8883084F8843094F8E9
:104F1000653084F88530F8BD2DE9F843984690F85F
:104F2000943005460F469146DDE9086443B324B347
:104F30001EB3236823B303689B6898472846FFF78E
:104F40006DFFB8B14B46424639462846FFF7A6FFEB
:104F50002346324605F16801281D2CF0D7F80030B1
:104F600018BF012044422B682846DB68984720463A
:104F7000BDE8F8834FF0FF34F5E76FF00104F6E782
:104F80004FF0FF34F3E72DE9F843984690F894305A
:104F900005460F469146DDE9086443B324B31EB3CA
:104FA000236823B303689B6898472846FFF736FFBA
:104FB000B8B14B46424639462846FFF76FFF2346B5
:104FC000324605F16801281D2CF07EF8003018BF2C
:104FD000012044422B682846DB6898472046BDE8FC
:104FE000F8834FF0FF34F5E76FF00104F6E74FF078
:104FF000FF34F3E7F7B51D4690F8943004460E46AB
:10500000174633B303689B6898472046FFF706FFAF
:10501000E0B14FF0FF333A4631462046FFF73EFFFE
:105020000A9B2A4604F168010193201D099B009305
:10503000089B2CF08DF8003018BF012045422368F2
:105040002046DB689847284603B0F0BD4FF0FF3597
:10505000F5E74FF0FF35F6E708B50348FEF734FFF4
:10506000BDE8084018F094BA8426002408B5034827
:10507000FEF72AFFBDE8084018F0A8BA84260024ED
:1050800010B504220649044630F0D2FD28B96379F0
:10509000012B02D1A079013010BD4FF0FF30FBE7AA
:1050A00008E107088378012B1AD14268130EFF2B01
:1050B00003D103781BB1812B0BD00020704722F065
:1050C0007F420A60C2789200502AA8BF50224A60EC
:1050D000F3E722F07F428A61C3789B00CB61ECE763
:1050E0004FF0FF307047282981BF90F82800031146
:1050F0000120984098BF4FF4807070474B681C2B7C
:10510000F0B524D9012301F1B00401F1C0064FF03C
:10511000FF379C4644F8047B027F0CFA02F2012A16
:10512000E2600CD9457F44F8045C8D6DAA4200D33F
:1051300005B98A6591F84C201A4381F84C205B0030
:10514000B44200F10200DBB2E4D1002006E0407876
:10515000FF2808614FF0FF3018BF0020F0BD30B5C8
:1051600004460D46D2E90201A94208BFA04215D368
:10517000116A99B101290FD002EBC1028B1E58327E
:10518000002B0BDB72E90201A94208BFA04201D249
:10519000581C30BD013BF3E70020FAE74FF0FF3029
:1051A000F7E72DE9F0470933DDF820A00546002692
:1051B0000AEBC30C03200824D31795F800E01EEA7D
:1051C000040F15D00AEB8006D6F8A8608E420ADAE2
:1051D000F717DCE90089B8EB020869EB03094F45D2
:1051E00008BF46450AD32EEA040E064685F800E0BD
:1051F00010F1FF304FEA5404DFD23046BDE8F087AB
:10520000436800200133DB08C1E90230704790F9A0
:105210000700C01770470000C16810B529B94FF4E6
:10522000FD720449044816F0C9FF0968BDE8104042
:10523000084700BF24DF070842DF07082DE9F04FC9
:1052400089B000274FF0080A002206AE002305901F
:105250008B460096CDE902A7FFF7DEFFB8422FDBB1
:105260003046FFF70DFF002827DB431C4FEAE071B3
:105270003D46574641F100044FEAC3084FEAC409CE
:105280005446AA4649EA53794D4508BF444513D0D0
:10529000009622462B460598CDE9027AFFF7BCFF1F
:1052A00000280DDB59463046FFF7FCFE002804DBE2
:1052B000083445F10005E7E7002009B0BDE8F08FAC
:1052C0004FF0FF30F9E72DE9F0430D46074685B072
:1052D000AC69D1E9020110F1FF32686241F1FF339C
:1052E000C5E91823002C5DD0EC69002C5AD020466B
:1052F000013C17F011FF002306460246002C03DB99
:1053000002F8013B013CF9E7EA6938460096CDE92D
:105310000223AA690023FFF77FFF00284CDB3378C4
:1053200003F00303032B02D07378002B44D0B3782F
:105330005A1C0A2A2A623FDC06F10804301D05F1D6
:10534000240E05F14C0C04EB830405F160070F21DA
:105350000023026810F8048B22F0FF0208F00F0807
:10536000844202F5807201EA08014EF8042B02F132
:10537000FF320CF8018B134498464FEAE37903F1AE
:105380000103E7E80289E4D100230122AB6512EAB8
:1053900001040BD03033002455F82330AB65304680
:1053A00017F0E2FE204605B0BDE8F083013352005D
:1053B000042BD2B2EBD1F2E74FF0FF34EFE77047A6
:1053C00070B500F10C060446B0F95820B0F956103B
:1053D00030462CF073FAD4E918530DB9DA070ED51C
:1053E0005A10DB0794F8681048BFA35804EB02007A
:1053F000B4F96A2048BF5D59B4F96C30A847216DF3
:1054000030462CF075F9224630460249BDE870401E
:1054100029F03EBD3D57040870B500F10C05044667
:10542000C16D284616F094F9226F82B1236E13B92C
:10543000636EDB070BD5A66F636F7110F60704EB85
:10544000010044BF6158CB5894F868109847216D0B
:1054500028462CF04DF9224628460249BDE8704006
:1054600029F016BD3D5704082DE9F0411F46C36DD4
:1054700004460D4616462BB140F22712164917482E
:1054800016F09CFE164AC0E9182303681B6898476B
:1054900084F86850A4F86A60A4F86C70032D0BD8E7
:1054A000DFE805F0150210154FF0FF3332460121F9
:1054B00004F10C0029F0E0FD236820465B68BDE89C
:1054C000F041184733464FF0FF320221F0E73B46E8
:1054D00032462946ECE700BF0DE1070835E1070831
:1054E000695404082DE9F0419846174B00250446FD
:1054F00003600F46154B16468560242243602946FB
:105500000C3030F0C5FC01232046E56384F85430AC
:1055100084F855304FF6FF73A4F85670A4F858601D
:10552000656684F86850A4F86A30A4F86C30A56702
:10553000C4E91358C4E91755C4E91C55FFF740FFE7
:105540002046BDE8F08100BF54E10708C1530408BC
:10555000F8B5174B002504460E4603601746154B59
:1055600024228560294643600C3030F091FC0123F1
:10557000E563204684F8543084F85530C4E9135765
:10558000B388A4F85630B3896566A4F858304FF64E
:10559000FF7384F86850A4F86A30A4F86C30A567EB
:1055A000C4E91765C4E91C55FFF736FF2046F8BD6E
:1055B00054E10708195404082DE9F04105469846BE
:1055C0000E46174655F80C3B04461B689847434661
:1055D00028463A4631462CF0FDF8236820465B68A1
:1055E000BDE8F041184738B50546044655F80C3B70
:1055F0001B68984728462CF01DF82368054620466E
:105600005B689847284638BD38B50546044655F8C6
:105610000C3B1B68984728462CF01CF8236805466D
:1056200020465B689847284638BD0C3029F0DCBC22
:1056300010B50C460C3029F00BFD204610BD8842F9
:1056400038B504460D4608D0FBF7A2FCEB68E360D2
:105650001BB15B68294620469847204638BD036841
:105660002DE9F04104461B6816460F46984794F80A
:105670005430F51C03B17EB194F855300BB1012EB6
:105680000AD0394604EB0510FFF7D9FF23682046FE
:105690005B68BDE8F041184716F07EFEFA6804EB3F
:1056A000051504F10C08EB6872B10BB917F0FAF9A3
:1056B00039462846FFF7C3FF01223146404629F00C
:1056C000F3FB16F07FFEE1E70BB117F001FA284675
:1056D000FBF75EFC0022EA60EFE700007FB5114BAC
:1056E00000250446694603602A460395FFF7B7FF85
:1056F000684604F13006FBF74BFC0395012269462E
:10570000204604F15005FFF7AAFF6846FBF740FC6E
:10571000AE4204D0103D2846FBF73AFCF8E720469D
:1057200004B070BD54E1070810B50446FFF7D6FF7A
:105730007C21204617F00CFD204610BD033100EB04
:10574000011008B5C3680BB1FEF702FD08BD036880
:1057500070B504461B680D46984794F85430AB4228
:105760002AD065B194F855304BB9A16863684A10E6
:10577000C90704EB020044BFA258D358984716F05B
:105780000BFEFDB1E36B6BB304F13000FEF7E0FC00
:1057900017F088F90122002104F10C0029F084FBA4
:1057A00016F010FE84F8545035B994F855301BB9F2
:1057B00004F10C002BF03CFE236820465B68BDE83A
:1057C000704018472A46294604F10C0029F06CFB6A
:1057D000E36B13B117F07CF9E2E716F0F3FD84F800
:1057E0005450E2E716F0EEFD012384F85430E3E76D
:1057F000036870B504461B680D46984794F8553009
:10580000AB422AD065B194F854304BB9A1686368B3
:105810004A10C90704EB020044BFA258D358984766
:1058200016F0BAFDFDB1E36C6BB304F14000FEF776
:105830008FFC17F037F9012204F10C00114629F012
:1058400033FB16F0BFFD84F8555035B994F8543049
:105850001BB904F10C002BF0EBFD236820465B68BC
:10586000BDE8704018472A46012104F10C0029F0D8
:105870001BFBE36C13B117F02BF9E2E716F0A2FD66
:1058800084F85550E2E716F09DFD012384F8553069
:10589000E3E7437D10B504461BB1037D0BB117F060
:1058A00017F9204610BD13B5044601A815F05EFF98
:1058B000637D53B9237D0BB117F0F4F8206915F01F
:1058C000E5FE0123C4E90001637501A815F054FF4A
:1058D00002B010BD73B5044601A80D4615F046FF91
:1058E00000230022C4E900236B7D5BB1286915F019
:1058F000CDFED5E90023821A61EB030315461E464F
:10590000C4E9005601A815F037FF204602B070BD6B
:105910007FB50D46044603A815F028FF29466846C2
:10592000FFF7D8FFD5E90201DDE90023151803A828
:1059300043EB0106C4E9005615F01EFF204604B0F3
:1059400070BD13B5044601A815F010FF206915F0CD
:105950009DFE00220023C4E90001C4E9022301A83E
:1059600015F00AFF02B010BDD0B5002300260027B5
:105970000446016102754375C0E90067C0E902672A
:10598000FFF7DFFF2046D0BD10B5044615F0D0FB71
:10599000002201462046FFF7E7FF204610BD0368BE
:1059A0001B68184710B5084B0446002208462360C0
:1059B0000023A1610549C4E902230023C4E904339B
:1059C00015F0DAFD204610BD6CE107089F59040868
:1059D00007B500F108010090806915F00CFE03B0D6
:1059E0005DF804FB00F10801806915F034BE002069
:1059F00070476FF01C0070476FF01C0070476FF02D
:105A0000150070476FF015007047012070470120A6
:105A10007047002070470020704770B58DB2064671
:105A200015F0010404D0FFF7DEFD041C18BF0124AB
:105A3000EB0605D53046FFF7E7FD08B144F010044A
:105A4000204670BDA0F17C00FFF7E7BF034B10B507
:105A500004460360FFF742FE204610BD78E10708C8
:105A6000A0F17C00F2E700BF10B50446FFF7EEFF9F
:105A70008021204617F06CFB204610BDA0F17C0071
:105A8000F2E72DE9F04105460C461746CAB116F07B
:105A900080FC80F0010010F0FF0603D02B68284640
:105AA0001B68984704EB0708444505D014F8011B10
:105AB0002846FFF7BDFDF7E71EB12B6828465B6857
:105AC00098473846BDE8F081A0F17C00FFF7D9BFC8
:105AD00038B504460D4662B103681B6898472046F6
